{
  "contractName": "Electrify",
  "abi": [
    {
      "constant": true,
      "inputs": [],
      "name": "owner",
      "outputs": [
        {
          "name": "",
          "type": "address"
        }
      ],
      "payable": false,
      "stateMutability": "view",
      "type": "function",
      "signature": "0x8da5cb5b"
    },
    {
      "constant": true,
      "inputs": [
        {
          "name": "",
          "type": "uint256"
        }
      ],
      "name": "transactions",
      "outputs": [
        {
          "name": "from",
          "type": "address"
        },
        {
          "name": "to",
          "type": "address"
        },
        {
          "name": "unitPrice",
          "type": "uint256"
        },
        {
          "name": "quantity",
          "type": "uint256"
        },
        {
          "name": "timestamp",
          "type": "uint256"
        }
      ],
      "payable": false,
      "stateMutability": "view",
      "type": "function",
      "signature": "0x9ace38c2"
    },
    {
      "inputs": [],
      "payable": false,
      "stateMutability": "nonpayable",
      "type": "constructor",
      "signature": "constructor"
    },
    {
      "constant": false,
      "inputs": [
        {
          "name": "to",
          "type": "address"
        },
        {
          "name": "quantity",
          "type": "uint256"
        }
      ],
      "name": "makeTransaction",
      "outputs": [
        {
          "name": "",
          "type": "bool"
        }
      ],
      "payable": true,
      "stateMutability": "payable",
      "type": "function",
      "signature": "0xe6beded8"
    },
    {
      "constant": true,
      "inputs": [],
      "name": "getTransactions",
      "outputs": [
        {
          "components": [
            {
              "name": "from",
              "type": "address"
            },
            {
              "name": "to",
              "type": "address"
            },
            {
              "name": "unitPrice",
              "type": "uint256"
            },
            {
              "name": "quantity",
              "type": "uint256"
            },
            {
              "name": "timestamp",
              "type": "uint256"
            }
          ],
          "name": "",
          "type": "tuple[]"
        }
      ],
      "payable": false,
      "stateMutability": "view",
      "type": "function",
      "signature": "0x83920e90"
    }
  ],
  "bytecode": "0x608060405234801561001057600080fd5b50336000806101000a81548173ffffffffffffffffffffffffffffffffffffffff021916908373ffffffffffffffffffffffffffffffffffffffff16021790555061080f806100606000396000f3fe608060405260043610610062576000357c0100000000000000000000000000000000000000000000000000000000900463ffffffff16806383920e90146100675780638da5cb5b146100925780639ace38c2146100bd578063e6beded8146100fe575b600080fd5b34801561007357600080fd5b5061007c61012e565b604051610089919061070f565b60405180910390f35b34801561009e57600080fd5b506100a7610258565b6040516100b491906106a1565b60405180910390f35b3480156100c957600080fd5b506100e460048036036100df9190810190610588565b61027d565b6040516100f59594939291906106bc565b60405180910390f35b6101186004803603610113919081019061054c565b610302565b6040516101259190610731565b60405180910390f35b60606001805480602002602001604051908101604052809291908181526020016000905b8282101561024f578382906000526020600020906005020160a060405190810160405290816000820160009054906101000a900473ffffffffffffffffffffffffffffffffffffffff1673ffffffffffffffffffffffffffffffffffffffff1673ffffffffffffffffffffffffffffffffffffffff1681526020016001820160009054906101000a900473ffffffffffffffffffffffffffffffffffffffff1673ffffffffffffffffffffffffffffffffffffffff1673ffffffffffffffffffffffffffffffffffffffff168152602001600282015481526020016003820154815260200160048201548152505081526020019060010190610152565b50505050905090565b6000809054906101000a900473ffffffffffffffffffffffffffffffffffffffff1681565b60018181548110151561028c57fe5b90600052602060002090600502016000915090508060000160009054906101000a900473ffffffffffffffffffffffffffffffffffffffff16908060010160009054906101000a900473ffffffffffffffffffffffffffffffffffffffff16908060020154908060030154908060040154905085565b6000343373ffffffffffffffffffffffffffffffffffffffff1631101580156103305750655af3107a400034115b151561033b57600080fd5b8273ffffffffffffffffffffffffffffffffffffffff166108fc349081150290604051600060405180830381858888f19350505050158015610381573d6000803e3d6000fd5b5061038a6104c8565b60a0604051908101604052803373ffffffffffffffffffffffffffffffffffffffff1681526020018573ffffffffffffffffffffffffffffffffffffffff1681526020013481526020018481526020014281525090506001819080600181540180825580915050906001820390600052602060002090600502016000909192909190915060008201518160000160006101000a81548173ffffffffffffffffffffffffffffffffffffffff021916908373ffffffffffffffffffffffffffffffffffffffff16021790555060208201518160010160006101000a81548173ffffffffffffffffffffffffffffffffffffffff021916908373ffffffffffffffffffffffffffffffffffffffff160217905550604082015181600201556060820151816003015560808201518160040155505050600191505092915050565b60a060405190810160405280600073ffffffffffffffffffffffffffffffffffffffff168152602001600073ffffffffffffffffffffffffffffffffffffffff1681526020016000815260200160008152602001600081525090565b600061053082356107b9565b905092915050565b600061054482356107cb565b905092915050565b6000806040838503121561055f57600080fd5b600061056d85828601610524565b925050602061057e85828601610538565b9150509250929050565b60006020828403121561059a57600080fd5b60006105a884828501610538565b91505092915050565b6105ba81610771565b82525050565b60006105cb82610759565b8084526020840193506105dd8361074c565b60005b8281101561060f576105f386835161062a565b6105fc82610764565b915060a0860195506001810190506105e0565b50849250505092915050565b61062481610783565b82525050565b60a08201600082015161064060008501826105b1565b50602082015161065360208501826105b1565b5060408201516106666040850182610692565b5060608201516106796060850182610692565b50608082015161068c6080850182610692565b50505050565b61069b816107af565b82525050565b60006020820190506106b660008301846105b1565b92915050565b600060a0820190506106d160008301886105b1565b6106de60208301876105b1565b6106eb6040830186610692565b6106f86060830185610692565b6107056080830184610692565b9695505050505050565b6000602082019050818103600083015261072981846105c0565b905092915050565b6000602082019050610746600083018461061b565b92915050565b6000602082019050919050565b600081519050919050565b6000602082019050919050565b600061077c8261078f565b9050919050565b60008115159050919050565b600073ffffffffffffffffffffffffffffffffffffffff82169050919050565b6000819050919050565b60006107c48261078f565b9050919050565b600081905091905056fea265627a7a72305820946847765ac999a6aa974e863e04d7078d0f840515773ec9ad24ba1ed4690a906c6578706572696d656e74616cf50037",
  "source": "pragma solidity ^0.5.0;\npragma experimental ABIEncoderV2;\ncontract Electrify {\n\n    // address of the person that made the deployment of this contract\n    // perhaps the \"admin\" later\n    address public owner;\n\n    struct User {\n        uint weight;\n        uint nbrTransactions;\n    }\n\n    struct Transaction {\n        address from;\n        address to;\n        uint unitPrice; // price of 1KWh in ether\n        uint quantity;\n        uint timestamp;\n    }\n\n    Transaction[] public transactions ;\n\n    constructor() public {\n        owner = msg.sender;\n    }\n\n    // send an amount of ether from the user that called this function to an address\n    function makeTransaction(address payable to, uint quantity) public payable returns(bool) {\n     require(msg.sender.balance >= msg.value && msg.value > 0.0001 ether);\n     to.transfer(msg.value);\n     Transaction memory trans = Transaction({\n         from: msg.sender,\n         to: to,\n         unitPrice: msg.value,\n         quantity: quantity,\n         timestamp: now});\n     transactions.push(trans);\n\n     return true;\n\n    }\n\n    function getTransactions() public view returns(Transaction[]memory){\n        return transactions;\n    }\n\n}\n",
  "sourcePath": "d:/9raya/ESPRIT/2 ING/Semestre 2/PiWEB/Electrify/FrontEnd/contracts/Electrify.sol",
  "compiler": {
    "name": "solc",
    "version": "0.5.0+commit.1d4f565a.Emscripten.clang"
  },
  "schemaVersion": "3.0.2",
  "updatedAt": "2019-03-27T19:20:42.758Z",
  "devdoc": {
    "methods": {}
  },
  "userdoc": {
    "methods": {}
  }
}